:100000000C94A3030C94EA030C94EA030C94EA0303
:100010000C94EA030C94EA030C94EA030C94EA03AC
:100020000C94EA030C94EA030C94DE240C94B0259F
:100030000C947B1B0C94EA030C94EA030C94EA03E3
:100040000C94EA030C94EA030C94EA030C94EA037C
:100050000C94EA030C94E31B0C94EA030C94EA035B
:100060000C94EA030C94EA030C94EA030C94EA035C
:100070000C94EA030C94EA030C94EA030C94EA034C
:100080000C94EA030C94EA030C94EA030C94EA033C
:100090000C94EA030C94EA030C94EA030C94EA032C
:1000A0000C94EA030C94EA030C94EA03B604B80433
:1000B000C304BA04BC04BE04C004C204C504C7041B
:1000C000C904D404CB04CD04CF04D104D304D60492
:1000D0009A119A11CD11CD110C122C128213821388
:1000E00037128213E712E7124E13571382137C1351
:1000F000F412F412F412F412F412F412F412F412D0
:10010000F412F412F412F412F412F412F412F412BF
:1001100004131213191320132A13FF13FF131114BE
:1001200011140814111411141114FF13FF130D14DA
:10013000111411140D141D263F262D273F262D279F
:100140008426A7262D27FC260F2700F001F0294141
:100150003A003B003C003D003E003F0040004100B3
:100160004200430044004500460047004C00002088
:100170001E001F0020002100220023002400250073
:10018000260027002D002E00310035004A002B00EC
:10019000000014001A000800150017001C001800C9
:1001A0000C00120013002F0030002A004B00E0006A
:1001B000000004001600070009000A000B000D00F3
:1001C0000E000F0033003400280000004E00E10054
:1001D000E1001D001B0006001900050011001000C1
:1001E0003600370038000000E50052004D00015194
:1001F000E3000000E2002C0000002C0000002C00B6
:100200000000E600E700E400500051004F0001004C
:100210001E081F0820082108220823082408250892
:10022000260801000100010001000100A8003500BE
:1002300001000100010001000100010001000100B6
:10024000010001000100010001000100A8000100FF
:100250000000010001000100010001000100010097
:10026000010001000100010001004C00A900010093
:1002700000000100010001000100010050005100D8
:1002800052004F000100010001000000AA0001001F
:100290000100010001000100010001000100010056
:1002A000010001000100000001004B0001000151AC
:1002B00002510000010001000000010000000100E7
:1002C00000000100010001004A004E004D00010045
:1002D0000100010001000100010001000100010016
:1002E0000100010001000100010001000100010006
:1002F00001000100010001000100010001000100F6
:1003000001000100010001000100010001000100E5
:100310000000010001000100007001000100010067
:1003200001000100010001000100010001000100C5
:1003300000000100010001000100010001000100B6
:1003400001000100010001000100000001000100A6
:100350000100010001003070327031703370010013
:1003600001000100010000000100387001000100DF
:100370000251000035703470000034700000347099
:1003800000003B7001003A7037703970367064328B
:1003900014643214783C1E1E140A0500000000018B
:1003A00001010202030405050607090A0B0C0E0FE2
:1003B0001112141517191B1D1F212325282A2C2F54
:1003C000313436393B3E414346494C4F5255585AD9
:1003D0005D6164676A6D707376797C7F8386898CD2
:1003E0008F9295989B9EA2A5A7AAADB0B3B6B9BCB3
:1003F000BEC1C4C6C9CBCED0D3D5D7DADCDEE0E2ED
:10040000E4E6E8EAEBEDEEF0F1F3F4F5F6F8F9FAEC
:10041000FAFBFCFDFDFEFEFEFFFFFFFFFFFFFFFE00
:10042000FEFEFDFDFCFBFAFAF9F8F6F5F4F3F1F047
:10043000EEEDEBEAE8E6E4E2E0DEDCDAD7D5D3D0B5
:10044000CECBC9C6C4C1BEBCB9B6B3B0ADAAA7A510
:10045000A29E9B9895928F8C898683807C797673F7
:10046000706D6A6764615D5A5855524F4C494643F6
:10047000413E3B393634312F2C2A282523211F1D9C
:100480001B1917151412110F0E0C0B0A090706057C
:100490000504030202010101000000000000000049
:1004A0000101010101010101010202020202020235
:1004B0000202030303030303030304040404040408
:1004C00005050505050606060606070707070808C9
:1004D00008080909090A0A0A0A0B0B0B0C0C0C0D77
:1004E0000D0D0E0E0F0F0F1010111111121213130C
:1004F0001414151516161717181819191A1A1B1C83
:100500001C1D1D1E1F1F20202122222324252526DD
:10051000272728292A2B2B2C2D2E2F2F3031323311
:10052000343536363738393A3B3C3D3E3F40414220
:100530004344464748494A4B4C4D4F5051525355FE
:100540005657585A5B5C5E5F606263646667696AAF
:100550006C6D6E707173747678797B7C7E8081832C
:100560008486888A8B8D8F91929496989A9B9D9F72
:10057000A1A3A5A7A9ABADAFB1B3B5B7B9BBBDBF7B
:10058000C1C4C6C8CACCCFD1D3D6D8DADCDFE1E447
:10059000E6E8EBEDF0F2F5F7FAFCFF12036B00650D
:1005A00000790062006F00610072006400000016B4
:1005B0000371006D006B006200750069006C0064DF
:1005C000006500720000000403090409026D0004C4
:1005D0000100A0FA09040000010301010009211132
:1005E0000100012240000705810308000A090401F7
:1005F000000103010200092111010001224D000741
:1006000005820308000A0904020001030000000932
:1006100021110100012236000705830308000A09A1
:100620000403000103000000092111010001223927
:1006300000070584032000011201100100000008DA
:10064000EDFE606001000102000105010906A10143
:10065000050719E029E715002501950875018102B4
:100660000508190129059505750191029501750384
:1006700091010507190029F71500250195F8750165
:100680008102C005010980A101850216010026032F
:10069000001A81002A8300751095018100C0050CA5
:1006A0000901A1018503160100269C021A01002AF6
:1006B0009C02751095018100C005010902A1010984
:1006C00001A10005091901290515002501950575E8
:1006D0000181029501750381010501093009311578
:1006E00081257F95027508810609381581257F953A
:1006F0000175088106050C0A38021581257F9501D0
:1007000075088106C0C005010906A101050719E0A9
:1007100029E71500250195087501810295017508E5
:1007200081010508190129059505750191029501B9
:10073000750391010507190029FF150026FF009593
:100740000675088100C011241FBECFEFDAE0DEBFBE
:10075000CDBF04B603FE27C08091BE029091BF02B8
:10076000A091C002B091C1028730904BA740B04B1E
:10077000D1F41092BE021092BF021092C0021092E9
:10078000C10214BE84B7877F84BF0FB6F894A895C2
:1007900080916000886180936000109260000FBEBD
:1007A000E0E0F8E3099511E0A0E0B1E0E4E1F2E572
:1007B00002C005900D92AE33B107D9F722E0AEE347
:1007C000B1E001C01D92AE3BB207E1F70E942322C7
:1007D0000C9408290C94000080E090E0089508959E
:1007E000089581E0089581FF02C0229A01C02298F5
:1007F0002A980895CF93DF93EC01662319F06130B6
:10080000B1F02FC00E945F1A80933F019A81992313
:1008100041F0882311F085E301C089E20E94D919D3
:100820001CC0882311F085E316C089E214C00E9421
:100830005F1A982F927290933E018A81882331F03B
:10084000992311F08CE4EACF8AE2E8CF992311F0E2
:100850008CE401C08AE20E941B1ADF91CF910C94B4
:10086000A91ADF91CF91089581E008950C94F103C6
:100870000E94ED132FEF84E39CE0215080409040D4
:10088000E1F700C000000C94081CFF920F931F9327
:10089000CF93DF938C01FC01C081D1818091A301B2
:1008A000811113C08281882349F0CE010E943B1937
:1008B000F82E682FCE010E94E01804C0CE010E94DD
:1008C0000F19F82EBE018F2D04C0CE010E943B19D6
:1008D000BE010E940306EC01B8010E943604882381
:1008E00009F43BC1B801CE010E943608882309F4FF
:1008F00034C1C633F0E7DF0741F4F8018281882371
:1009000009F42BC10E94260B28C1C73380E7D80702
:1009100008F09AC0C53190E7D90708F07EC0C23010
:10092000E0E7DE0708F452C0F8018281882309F469
:1009300059C00E94FE1A811102C00E94D81A0E945A
:100940001B1B90E09093AF028093AE02FE01E35038
:10095000F047E231F10530F4EA5AFF4F8091AE02E0
:100960000C94BA288091AE02816027C0826025C0B5
:10097000846023C0806121C080621FC080641DC06C
:1009800080681BC08460886018C08E7F16C08D7F11
:1009900014C08B7F12C08F7E10C08F7D0EC08F7BE6
:1009A0000CC08F770AC08B7F877F07C087FB222709
:1009B00020F991E0922790FB87F98093AE02809115
:1009C000AE020E941F1B0E94ED13C7C0C115F0E7C5
:1009D000DF0781F0C130D047A9F081E08093420168
:1009E00080934301C801DF91CF911F910F91FF9038
:1009F0000C943404F8018281882309F4AEC00E946B
:100A00003804ABC0F8018281882309F4A6C0809124
:100A10004502816080934502A0C0C43390E7D907A6
:100A200041F4F8018281882309F497C00E94450CA3
:100A300094C0C533D04789F6F8018281882309F430
:100A40008CC00E943B0C89C0CA33F0E7DF0741F439
:100A5000F8018281882309F480C00E94920B7DC036
:100A6000CB3380E7D807D8F4F8018281C833F0E7A8
:100A7000DF0731F4882309F470C00E945D0B6DC05C
:100A8000C933D04730F4882309F467C00E943E0B75
:100A900064C0882309F461C00E94780B5EC0CC3327
:100AA000E0E7DE0719F5F8018281882351F0109202
:100AB00042010E94AD1B909341018093400182E06E
:100AC0002AC08091420181110FC080914001909114
:100AD00041010E94B91B883C910530F486E20E94D6
:100AE0003E1086E20E94061182E01DC0CC33F0E782
:100AF000DF07E0F0CD33D04709F06FCFF8018281F6
:100B0000882361F0109243010E94AD1B9093410134
:100B10008093400180E20E9455111FC080914301E3
:100B2000882359F080E20E945C1117C0F80182818D
:100B3000882399F00E94AD0B10C0809140019091E4
:100B400041010E94B91B883C910560F787E20E9431
:100B50003E1087E20E940611E5CF80E0DF91CF9141
:100B60001F910F91FF9008950C948708269A2E9854
:100B70008FEF9FEF909387008093860082E28093AF
:100B8000800089E1809381000C94CA1F0E94B60501
:100B90000C9485082E9881110AC0809180008F7D69
:100BA0008093800010928B0010928A000895853007
:100BB00041F4809180008062809380008FEF9FEFEE
:100BC00019C09091800090629093800025E030E001
:100BD000A901481B5109CA019A01220F331F820F34
:100BE000931F2FEF3FEFA90102C0569547958A95B5
:100BF000E2F7CA0190938B0080938A0008950C94C9
:100C0000F3030C94FF05E72FF0E096E0899FE00DD9
:100C1000F11D112484E0EE0FFF1F8A95E1F7E60F26
:100C2000F11DEE0FFF1FE25BFE4F85919491089539
:100C3000880F991FFC01E65BFE4F85919491089502
:100C40000E9403060E94B807811520E5920708F06C
:100C50003FC0811530E4930708F013C1883E910529
:100C600008F5803E910508F082C1883A910578F434
:100C7000853A910508F09DC08130910509F477C14E
:100C800008F42EC18430910508F071C129C18D3B53
:100C9000910508F499C0803C910508F421C1805C5D
:100CA0009109E9C0811540E2940758F4811521E0CB
:100CB000920708F05CC1803F910508F411C190656E
:100CC0000895811530E3930708F0D8C09F70D3C012
:100CD000811545E5940708F043C0811524E5920786
:100CE00008F0E6C0811532E5930708F5811541E566
:100CF000940708F0C9C0482F437021E030E002C0DB
:100D0000220F331F4A95E2F73C68AC0164E0569528
:100D100047956A95E1F74370342B8F7086958695D9
:100D200040E2849FC0011124822B932B0895282F29
:100D300026952695AC01437055278115934508F0FB
:100D4000A8C080E2289F9001112481E090E002C0B9
:100D5000880F991F4A95E2F7822B932B9C68089580
:100D6000803340E7940790F4803220E7920708F040
:100D7000AAC0811536E5930708F49FC09C01305640
:100D80002115304108F0ACC09F709BC0813320E733
:100D9000920709F49FC008F49AC0823340E7940791
:100DA00009F49BC08333904709F09AC080E093ED2B
:100DB0000895853A910509F496C0863A910509F09F
:100DC00095C082E890E40895883A910509F491C0AD
:100DD000893A910509F490C08A3A910509F48FC0C7
:100DE0008B3A910509F48EC08C3A910509F48DC0B7
:100DF0008B3B910509F48CC08C3B910509F48BC0A9
:100E00008D3A910509F48AC0803B910509F489C0A7
:100E10008E3A910509F488C08F3A910509F487C08C
:100E2000813B910509F486C0823B910509F485C098
:100E3000833B910509F484C0843B910509F483C088
:100E4000853B910509F482C0863B910509F481C078
:100E5000873B910509F480C0883B910509F47FC068
:100E6000893B910509F47EC08A3B910509F47DC058
:100E700080E094E408950E94180608959927906CE4
:100E800008959F70906A0895982F8827816F906ABF
:100E9000089580E2289F9001112481E090E002C033
:100EA000880F991F4A95E2F7822B932B9A68089531
:100EB000982F8827846F906A08958F719927982FAB
:100EC00088279062089580529047946D089580E03D
:100ED00091ED089580E090ED089580E092ED089501
:100EE00080E090E0089581E890E4089583E890E43C
:100EF000089582EE94E4089589EE94E408958AEECC
:100F000094E4089585EB94E4089586EB94E40895C1
:100F100083EB94E4089584EB94E4089587EB94E4E0
:100F200008958CEC94E408958DEC94E4089583E89E
:100F300095E408958AE895E4089582E995E4089592
:100F400084E995E4089581E296E4089583E296E4C5
:100F5000089584E296E4089585E296E4089586E291
:100F600096E4089587E296E408958AE296E4089567
:100F70008238910549F1B0F48133910509F458C0E4
:100F800048F48932910509F44EC08A32910509F47A
:100F900054C008958533910509F440C08933910503
:100FA00099F00895833E910529F138F4803E91052A
:100FB00091F0823E9105A1F00895863E9105F9F0E9
:100FC000873E910531F108952091AE0220FD3AC08F
:100FD00021FD38C008958091AE0280FD35C032C039
:100FE0008091AE0282FF32C08091AE0284FD30C09B
:100FF00083EE39C08091AE0282FD28C0F5CF80918A
:10100000AE0283FF27C08091AE0284FD21C087EE2F
:101010002AC08091AE0283FD1DC0F5CF8091AE0243
:1010200085FD1AC01BC08091AE0285FD17C014C09B
:101030008091AE0286FD14C015C08091AE0286FD7F
:1010400011C00EC080EE0FC089E30DC082EE0BC050
:1010500080E009C086EE07C089E205C085E303C0D1
:101060008AE201C081E390E0089508950F931F93F1
:10107000CF93FB012281211102C0C1E041C08C014C
:10108000C0915101C11125C085319047B1F70E942F
:10109000350881E0809351010E94AD1B909350016F
:1010A00080934F0110924401109246011092450125
:1010B000109248011092470110924A011092490182
:1010C00010924C0110924B0110924E0110924D0162
:1010D00017C080914F01909150010E94B91B883C2C
:1010E000910558F690914401E92FF0E0EE0FFF1FB3
:1010F000EB5BFE4F118300839F5F90934401C0E040
:101100008C2FCF911F910F9108950C94EF030C94A5
:10111000F003CF93DF9385B7806885BF85B780687C
:1011200085BFA4E2B1E041E050E026E02A0F8D91B6
:10113000E82FE295EF70F0E031A18F70BA0102C0A4
:10114000660F771F8A95E2F7CB01962F9095932330
:1011500091A392A1892B82A32A13E9CFA4E1B1E044
:1011600041E050E020E12A0F8D91E82FE295EF70E9
:10117000F0E031A18F70BA0102C0660F771F8A9527
:10118000E2F7CB01962F9095932391A392A1892BFF
:1011900082A32A13E9CFEAE6F1E0CEE5D1E0A2E5A9
:1011A000B1E011921192199219921D921D9271E063
:1011B000E637F707B1F7DF91CF910C94C6052F9270
:1011C0003F925F926F927F928F929F92AF92BF9267
:1011D000CF92DF92EF92FF920F931F93CF93DF9303
:1011E00024E2C22E21E0D22E02E511E0E801EE2435
:1011F000E394F12C662463945E01888099801982BF
:101200001882D6018D916D01E82FE295EF70F0E024
:1012100021A18F70A70102C0440F551F8A95E2F7E4
:10122000CA01242B21A322A1742E7094272122A36A
:1012300050EA5A95F1F794E1292E91E0392E20E0F9
:1012400030E0D1017D911D01472F42954F7050E054
:10125000DA0190965C90488159817F70D70102C075
:10126000AA0FBB1F7A95E2F7BD01652141F4B701D2
:10127000022E02C0660F771F0A94E2F702C060E0F8
:1012800070E0462B572B598348832F5F3F4F203107
:101290003105B9F691A1792271A292A1892B82A37D
:1012A0002296F501808191818816990641F060921D
:1012B00076010E94AD1B9093780180937701F1E055
:1012C000CE35DF0709F098CF809176018823B1F001
:1012D00080917701909178010E94B91B069770F078
:1012E000EAE6F1E0D8018D919D918D018193919372
:1012F000B1E00E351B07B1F7109276010E94B405DC
:1013000081E0DF91CF911F910F91FF90EF90DF90DF
:10131000CF90BF90AF909F908F907F906F905F9095
:101320003F902F900895E82FF0E0EE0FFF1FE65951
:10133000FE4F80819181089508952EB1342F30950C
:1013400023233EB1432B3FB7F894FC01680F791F6C
:10135000E617F70789F0819198E04EB9000000C0C8
:1013600087FF2EB9880F000000C000C000C02EB952
:1013700000C09A9591F7ECCF3FBF08952DB1242B73
:101380002DB99B01220F331F620F731F0E949D090D
:1013900087EC90E00197F1F700C00000089544E069
:1013A0000C94BE09EF92FF920F931F93CF93DF939C
:1013B000E901662309F44BC0242F30E0EFEFF0E0A1
:1013C000E61BF109B901E69F9001E79F300DF69FFA
:1013D000300D1124232F8B01031B11095CE3E52E33
:1013E000F12CB7010E949228FB01BC01069FC001AD
:1013F000079F900D169F900D1124B7010E9492280F
:10140000E230F105B1F040F4309779F0319711F501
:10141000832F242F461B21C0E430F105A1F068F092
:101420003597C1F4842F861B18C0832F262F230FD6
:1014300014C0862F830FE42F03C0E42FE61B842FF4
:10144000432F2E2F0AC0842F462F430F06C0842F10
:10145000242F03C080E020E040E0E42FF0E0E556D8
:10146000FB4F4491E22FF0E0E556FB4F9491E82FBB
:10147000F0E0E556FB4FE49149839883EA83DF91DE
:10148000CF911F910F91FF90EF90089588E090E029
:101490000C94C828AB01BC0188E090E00C94E628CD
:1014A000E2E7F2E083E08083109273028FEF8283A1
:1014B00083836091720270917302809174029091A3
:1014C00075020C944A0A8091720280FF06C060E1A6
:1014D00070E08AE792E00C94CF0980E090E0FC0194
:1014E000E658FD4F118210821282039680339105D7
:1014F000B1F7EDCF20E030E0F901E658FD4F8183F0
:10150000608342832D5F3F4F20333105A9F70C9450
:10151000630AEF92FF920F931F93CF93DF9300D054
:101520001F92CDB7DEB70091720210917302209125
:101530007402309175020093760210937702209323
:101540007802309379022091720220FF21C0042F8B
:10155000F62EE92E182F9E012F5F3F4F0E94D209D1
:101560008091760210FB87F9809376021695809120
:1015700077028078182BE0FA17F910937702F0922F
:101580007802009379024B8169818A810E947A0AEC
:101590000F900F900F90DF91CF911F910F91FF90BF
:1015A000EF9008950F931F93CF93DF93EC01062FD5
:1015B000142F9091720290FF44C0892F8E77823051
:1015C00021F4CE010E94890A1BC0892F86958F7352
:1015D0002EE3280F2F73243018F41091750210C0D9
:1015E000865C8F73893060F4C92FCC1FCC27CC1F49
:1015F000D09173028D2F880FC82BD7FBDD27D0F930
:1016000080917202C0FB87F980937202C695809127
:1016100073028078C82BD0FBC7F9C0937302009384
:10162000740210937502609172027091730280913E
:10163000740290917502DF91CF911F910F910C94DC
:101640004A0ADF91CF911F910F910895E2E7F2E0EE
:101650002081221F2227221F30917302432F440F23
:10166000842F822B37FB992790F9089668E671E062
:101670000E94A628438162810C94D20A20917202B2
:10168000221F2227221F30917302432F440F842FE1
:10169000822B37FB992790F9883091051CF4805AEA
:1016A0009E4F01C0089768E671E00E94A62840910D
:1016B0007502609174020C94D20A60917402862FB4
:1016C00090E0883F910514F4685F01C06FEF80914E
:1016D0007202881F8827881F90917302292F220F7A
:1016E00097FB992790F940917502822B0C94D20AAE
:1016F00060917402862F90E0089714F0685001C042
:1017000060E080917202881F8827881F9091730281
:10171000292F220F97FB992790F940917502822B70
:101720000C94D20A40917502842F90E0883F910575
:1017300014F4485F01C04FEF80917202881F882720
:10174000881F90917302292F220F97FB992790F9F8
:1017500060917402822B0C94D20A40917502842FFE
:1017600090E0089714F0485001C040E08091720268
:10177000881F8827881F90917302292F220F97FBBB
:10178000992790F960917402822B0C94D20A90915F
:10179000720290FF3BC09178811102C0926007C035
:1017A000893110F0906303C08F73880F982B90934A
:1017B0007202609172027091730280917402909132
:1017C00075020E944A0A80917202982F9E77923089
:1017D00019F410928E0109C0982F9695925C9F7310
:1017E000963118F491E090938E01881F8827881F06
:1017F00090917302292F220F97FB992790F940911E
:10180000750260917402822B0C94D20A0895809123
:10181000450281608093450281E080938F010E94A0
:10182000FE1A811104C00E94D81A0E94500A0E9418
:10183000460A6093720270937302809374029093CD
:1018400075026E7761F40E94500A0E94460A609306
:10185000720270937302809374029093750281E018
:1018600080938E018091720280FF04C086958F73F1
:101870000C94C70B08958091720286958F738F5FC9
:10188000893108F081E00C94C70B80917202982F87
:10189000909590FB80F98093720260917202709132
:1018A000730280917402909175020E944A0A80919D
:1018B000720280FF04C086958F730C94C70B109240
:1018C0008E012FEF80E792E0215080409040E1F7B9
:1018D00000C000000C94630ACF93C82F80918C0144
:1018E00090918D010E94B91BEC2FF0E0E956FC4F5E
:1018F000E491F0E08E179F0718F10E94AD1B9093C2
:101900008D0180938C01E0918B01F0E0E556FC4F56
:10191000449180917202881F8827881F90917302DA
:10192000292F220F97FB992790F960917402822B3F
:101930000E94890A80918B0190E0019680938B012F
:10194000CF910895CF93C82F8091890190918A01FA
:101950000E94B91BEC2FF0E0EC56FC4FE491F0E054
:101960008E179F07E8F00E94AD1B90938A01809329
:101970008901409175026091740280918701909174
:1019800088010E94890A80918701909188010196BF
:1019900068E671E00E949228909388018093870105
:1019A000CF910895CF92DF92FF920F931F93CF9321
:1019B000DF93F82E80918501909186010E94B91BDA
:1019C000EF2DE695F0E0EC56FC4FE491F0E08E1739
:1019D0009F07F0F10E94AD1B9093860180938501D3
:1019E0000AE712E0C0E0D0E088E6C82EDD24D394F8
:1019F00080918301909184018C0F9D1FB6010E94FC
:101A00009228980140917502609174020E94D20957
:101A100066960D5F1F4FC03681E0D80749F70E94D8
:101A2000630A2091830130918401F0FE0BC0C9014B
:101A3000019668E671E00E94922890938401809359
:101A4000830106C021503109309384012093830122
:101A5000DF91CF911F910F91FF90DF90CF9008956C
:101A60008F929F92AF92BF92CF92DF92EF92FF92AE
:101A70000F931F93CF93DF93C82F80FF03C0DD2404
:101A8000DA9402C0DD24D394809181019091820187
:101A90000E94B91BC695EC2FF0E0EF56FC4FE49185
:101AA000F0E08E179F0708F466C00E94AD1B90936C
:101AB0008201809381019AE7E92E92E0F92E0CE7EA
:101AC00012E0C0E0D0E027E0822E912CF80131979F
:101AD0001082F7011082F801108287E0A82EB12C45
:101AE000C12C809180018C0D87FD805F082E000C39
:101AF000990BC817D907E9F4209175022A9DC001F6
:101B00002B9D900D1124B4010E94A628462F809190
:101B10007202881F8827881F90917302592F550FD2
:101B200097FB992790F9970160917402852B0E9489
:101B3000D209CD0CF1E0AF1AB10899F6219683E0F5
:101B4000E80EF11C0D5F1F4FC031D10509F0BECF6B
:101B50000E94630A8091800191E0D91206C0811130
:101B600002C08FE006C0815004C090E001968F70E3
:101B7000992780938001DF91CF911F910F91FF9062
:101B8000EF90DF90CF90BF90AF909F908F9008958F
:101B90009F92AF92BF92CF92DF92EF92FF920F93FC
:101BA0001F93CF93DF93CDB7DEB7E0970FB6F894CE
:101BB000DEBF0FBECDBF182F80917E0190917F01B7
:101BC0000E94B91BE12FF0E0E257FC4FE491F0E0F6
:101BD0008E179F0708F493C00E94AD1B90937F015E
:101BE00080937E01CE0101967C015E0193E0A90EF7
:101BF000B11CC12CD12C8701F50131971082F7015E
:101C00001082F5011082912C9091000180917D014C
:101C1000999E800D112487FD04C080311CF08FE057
:101C200001C080E0082E000C990BC816D906A1F45B
:101C300080917202881F8827881F90917302592F04
:101C4000550F97FB992790F9970140917502609184
:101C50007402852B0E94D2099394F7E09F12D4CF8F
:101C60008FEFC81AD80A93E0E90EF11CE3E0AE0E3C
:101C7000B11CF0E1CF16D10409F0BECFACE7B2E061
:101C800089E090E0FC01EF70FF279D0121503109B0
:101C9000AF01440F551FE40FF51FBF01600F711F07
:101CA000FB014181F901408321503109FB01408151
:101CB000F9014083FB0122812C930196139689310F
:101CC000910501F70E94630A9091000180917D01C6
:101CD000913049F48A3F2CF489EF80937D018FEF96
:101CE00008C081500AC087313CF086E180937D01B5
:101CF00081E08093000103C08F5F80937D01E096B7
:101D00000FB6F894DEBF0FBECDBFDF91CF911F910C
:101D10000F91FF90EF90DF90CF90BF90AF909F908A
:101D20000895CF93DF9380917B0190917C010E9475
:101D3000B91B883E934028F10E94AD1B90937C0113
:101D400080937B018091790190917A010196817055
:101D5000992790937A0180937901CAE7D2E09E0196
:101D6000409175026091740280E090E00E94D20977
:101D7000239682E0CA3AD80791F7DF91CF910C946D
:101D8000630ADF91CF91089580918E01882371F1CC
:101D90008091720286958F739EE3980F9F739430A3
:101DA00018F482500C946C0C9AE3980F9F73933044
:101DB00018F486500C94A20C97E3980F9F739630FA
:101DC00018F489500C94D20C91E3980F9F739630BD
:101DD00018F48F500C94300D9BE2980F9F73933042
:101DE00018F485510C94C80D0C94910E089590939D
:101DF0009501809394010895E0919401F0919501EB
:101E0000309721F00190F081E02D099480E0089551
:101E1000E0919401F0919501309721F00280F381D7
:101E2000E02D09940895E0919401F0919501309787
:101E300021F00480F581E02D09940895209192010C
:101E4000309193018217930771F0909393018093DF
:101E50009201E0919401F0919501309721F0068074
:101E6000F781E02D0994089520919001309191011E
:101E70008217930771F09093910180939001E09104
:101E80009401F0919501309721F00084F185E02DC7
:101E90000994089508950C944A0F0E94A41B0E946F
:101EA00089080E94761C0E94CA1F0C94070C4F924E
:101EB0005F927F928F929F92AF92BF92CF92DF926A
:101EC000EF92FF920F931F93CF93DF93CDB7DEB7BF
:101ED0002A970FB6F894DEBF0FBECDBF0E94DF0871
:101EE00097E9C92E91E0D92E00E010E0AA24A3942E
:101EF000B12C702E802F0E9493094C01F601419065
:101F000051906F014826592641145104B1F40F5FD6
:101F10001F4F0630110569F78FEF89838A831B8273
:101F20000E94AD1B8160782F9D838C8349815A81EB
:101F30006B818D810E9410103AC08091450281FD15
:101F40000E949C0920E030E07501022E02C0EE0CD8
:101F5000FF1C0A94E2F7C70184219521892B09F11E
:101F60002E837F828E209F2091E0892809F490E0C3
:101F700098870E94AD1B8160782F9A8789874E8150
:101F80005F8168858A850E941010000F111FF8017B
:101F9000E956FE4F80819181E826F926F182E082A0
:101FA00006C02F5F3F4F2031310571F6B0CF0E9440
:101FB000191F109196010E94FC0E1817D9F00E946B
:101FC000FC0E809396012A960FB6F894DEBF0FBEE2
:101FD000CDBFDF91CF911F910F91FF90EF90DF90D8
:101FE000CF90BF90AF909F908F907F905F904F90D9
:101FF0000C9401062A960FB6F894DEBF0FBECDBF33
:10200000DF91CF911F910F91FF90EF90DF90CF90D4
:10201000BF90AF909F908F907F905F904F9008956A
:10202000CF93DF93CDB7DEB72B970FB6F894DEBF13
:102030000FBECDBF4F83588769877A878B87DE01B4
:10204000119686E0FD0111928A95E9F785E0FE017F
:10205000379601900D928A95E1F749815A816B81FB
:102060007C818D819E810E9485162B960FB6F894F7
:10207000DEBF0FBECDBFDF91CF910895882309F455
:10208000C4C0823859F40E94FC0E81FDBEC089E3B1
:102090000E94D9190E94A91A89E30CC0833871F4EF
:1020A0000E94FC0E80FDB1C083E50E94D9190E94F8
:1020B000A91A83E50E941B1A0C94A91A843859F4B2
:1020C0000E94FC0E82FDA1C087E40E94D9190E94E3
:1020D000A91A87E4EFCF9CEF980F913A18F40E9469
:1020E000D919EACF90E2980F983050F4877091E0B8
:1020F00001C0990F8A95EAF7892F0E94621ADCCFF6
:102100009BE5980F933070F4853A29F0863A31F0C8
:1021100083E890E005C081E890E002C082E890E0AA
:102120000C941E0F98E5980F953108F06EC0883A10
:1021300061F1893A69F18A3A71F18B3A79F18C3A15
:1021400081F18B3B89F18C3B91F18D3A99F1803B88
:10215000A1F18E3AA9F18F3AB1F1813BB9F1823BFD
:10216000C1F1833BC9F1843BD1F1853BD9F1863B79
:10217000E1F1873BE9F1883BF1F1893BF9F18A3BD9
:1021800009F43FC080E090E03EC082EE90E03BC0AA
:1021900089EE90E038C08AEE90E035C085EB90E0A3
:1021A00032C086EB90E02FC083EB90E02CC084EB34
:1021B00090E029C087EB90E026C08CEC90E023C033
:1021C0008DEC90E020C083E891E01DC08AE891E0AA
:1021D0001AC082E991E017C084E991E014C081E25D
:1021E00092E011C083E292E00EC084E292E00BC064
:1021F00085E292E008C086E292E005C087E292E0C4
:1022000002C08AE292E00C94340F0895882309F406
:102210004BC0823859F40E94FC0E81FF45C089E30F
:102220000E94D9190E94A91A89E30CC0833871F45D
:102230000E94FC0E80FF38C083E50E94D9190E94DD
:10224000A91A83E50E941B1A0C94A91A843859F420
:102250000E94FC0E82FF28C087E40E94D9190E94C8
:10226000A91A87E4EFCF9CEF980F913A58F390E2C8
:10227000980F983050F4877091E001C0990F8A95BB
:10228000EAF7892F0E94681ADFCF9BE5980F9330F9
:1022900020F480E090E00C941E0F885A853120F4E1
:1022A00080E090E00C94340F0895882321F00E9480
:1022B000621A0C94A91A0895882321F00E94681AC2
:1022C0000C94A91A08957F928F929F92AF92BF9219
:1022D000CF92DF92EF92FF920F931F93CF93DF93F2
:1022E0001F92CDB7DEB77C01C62E772EFC0105818B
:1022F00002950F70128111110E947F1A0E94D2194B
:10230000882379F0112369F080E28C0D883048F041
:1023100082E00E94BB190E94D21991E0D82ED926E2
:1023200001C0D12CE72DE295EF70F0E0E859FF4FA6
:102330000C94BA28872D807F072D0F70882311F009
:102340000295007F112399F0002309F49DC180E2DA
:102350008C0D883010F0C11004C0802F0E94621ACA
:1023600003C0802F0E94721A0E94A91A8DC18C2D61
:102370000E940611002309F4C5C180E28C0D88304B
:1023800010F0C11004C0802F0E94681A03C0802F73
:102390000E94781A0E94A91AB5C1872D807F972DB7
:1023A0009F70803211F4892F03C0892F8295807F1E
:1023B000CC2021F0F1E0CF16A1F01DC0112339F09F
:1023C000002319F1013009F50E94921A9BC10023E4
:1023D00019F0013009F496C189830E94951A898108
:1023E00010C1112321F0063008F08CC10EC0053059
:1023F00008F088C106C1112359F0002331F0F7011C
:10240000958190FF41C19F7095830E9455117AC1BB
:10241000002309F4F6C03EC1872D8695869583700A
:1024200090E0009719F0019761F06CC1112321F041
:102430008C2D972D937002C080E090E00E941E0FBB
:1024400061C1112321F08C2D972D937002C080E083
:1024500090E00E94340F56C18C2D112319F00E9478
:10246000211E02C00E94891E0E940E1F4BC1872D93
:10247000837009F052C0111145C18C2D829586954B
:102480008770880F880F9C2D9F70892E912CA12C0E
:10249000B12C082E04C0880C991CAA1CBB1C0A94E1
:1024A000D2F7C4FE14C00FE010E020E030E0B90124
:1024B000A80104C0440F551F661F771F8A95D2F7E5
:1024C000CB01BA01609570958095909503C060E04E
:1024D00070E0CB01272D26952695237030E0223021
:1024E000310569F02330310589F0682979298A2975
:1024F0009B292130310571F00E94CD1703C1682955
:1025000079298A299B290E94E917FCC00E94CD17CE
:10251000C501B4010E94B117F5C0112319F0872D30
:10252000817001C08695882309F4ECC08C2D8295BA
:1025300086958770880F880F9C2D9F70892E912C0F
:10254000A12CB12C082E04C0880C991CAA1CBB1C01
:102550000A94D2F7C4FE14C00FE010E020E030E08F
:10256000B901A80104C0440F551F661F771F8A9543
:10257000D2F7CB01BA01609570958095909503C014
:1025800060E070E0CB01272D269526952370422F21
:1025900050E04230510569F04330510589F0682917
:1025A00079298A299B294130510571F00E94A71889
:1025B000A9C0682979298A299B290E94C318A2C029
:1025C0000E94A718C501B4010E948B189BC08C2DD6
:1025D00090E0FC01E05EF109E531F10508F050C042
:1025E000E858FF4F0C94BA280C2D0F70872D8F716F
:1025F000112321F00E942418802F07CF0E94451834
:10260000802F0E945C117EC0112341F0053008F03C
:1026100079C0872D8F710E946A1874C0063008F047
:1026200071C0F7CF112339F0872D8F710E942418C4
:1026300069C01123C9F3872D8F710E94451862C0AC
:10264000112329F0872D8F710E940F185BC00E9403
:10265000051858C0112351F0172D1F71812F0E94AA
:10266000241863E0812F0E94B2194CC081E00E94BF
:10267000BB19023008F446C082E00E94BB1942C078
:10268000112331F0002381F28C2D0E943E103AC0BC
:10269000002389F28C2D0E94061134C0472D4F7003
:1026A0006C2DC7010E94EC030E9429172BC0111149
:1026B00029C0472D4F7050E042305105B9F04CF41D
:1026C0004115510581F041305105E1F40E94F81F98
:1026D00019C04330510569F04430510599F48C2DEF
:1026E0000E944A200FC00E94DB1F0CC00E941420D1
:1026F00009C00E94272006C0472D4F706C2DC701CE
:102700000E94FA03DD20F9F00E94AE1980FD1BC083
:10271000F70112820E94A8190E942418C7010E9482
:10272000B2130E94A8190F90DF91CF911F910F91C2
:10273000FF90EF90DF90CF90BF90AF909F908F90E1
:102740007F900C9445180F90DF91CF911F910F91BE
:10275000FF90EF90DF90CF90BF90AF909F908F90C1
:102760007F9008950F931F93CF93DF93EC0188819F
:1027700099812B813C81232BB9F09F3F11F48F3F2E
:1027800099F0CE010E944504882371F06881798117
:102790008A810E9485198C010E94DF180E94A61769
:1027A000B801CE010E946311DF91CF911F910F916B
:1027B00008950E947F1A0E948F1A0E94511A0E9447
:1027C000A91A0E94BE1F0E940E1F80E090E00E9486
:1027D0001E0F80E090E00C94340F0E946F1A0C944E
:1027E000D9130E947A19E92FE295EF70F0E0329741
:1027F000EE30F105B0F4E357FF4F0C94BA28803F58
:1028000091F018F4803E68F40EC0843F51F40BC080
:10281000803E48F0813F29F406C093FB882780F969
:10282000089580E0089581E00895CF93DF9300D06C
:1028300000D01F92CDB7DEB70F900F900F900F9082
:102840000F90DF91CF910895CF93DF9300D000D008
:1028500000D0CDB7DEB726960FB6F894DEBF0FBE18
:10286000CDBFDF91CF9108951F93CF93DF93C09198
:10287000A40116E08091A501C81799F0D0E01C9F33
:10288000F0011D9FF00D1124EA55FE4F408151814A
:1028900062817381848195810E9424142196C7707E
:1028A000E9CFDF91CF911F9108954091D6015091CA
:1028B000D7016091D8017091D9018091DA0190918E
:1028C000DB010C9424148091DB0182958F7009F058
:1028D00054C08091D801882309F44FC08091A4018D
:1028E000A091A5016091D6017091D7014091D901C5
:1028F0005091DA01B6E08A1709F43FC090E0411523
:102900005105C1F17F3F11F46F3FA1F1B89FF00174
:10291000B99FF00D1124EA55FE4F218172132AC090
:102920002081621327C02281211124C02381348198
:102930002417350710F421503109241B350B283C8E
:102940003105C0F42091DB012F7020612093DB0161
:1029500026E0289FF001299FF00D1124E555FE4F38
:1029600080818F708061808386ED91E00E94B21338
:102970000C94341401968770BECF0895CF92DF92E5
:10298000EF92FF920F931F93CF93DF93CDB7DEB7F4
:1029900062970FB6F894DEBF0FBECDBF8C0185E005
:1029A000F801DE011D9601900D928A95E1F7D8019C
:1029B0004C9111965C91119712966C911297139607
:1029C000CD90DC9014973091D6017091D701809111
:1029D000D9019091DA01009709F46BC17F3F19F496
:1029E0003F3F09F466C1E090D801EE2009F4C0C071
:1029F0002091DB01C816D90628F0F601E81BF90B77
:102A0000CF0104C0809590958C0D9D1DFF24F394FB
:102A1000883C910578F0F12C207F09F0C6C07C2D10
:102A2000D98AC88A89890E94151486ED91E00E948E
:102A3000B213B1C0822F807F09F046C0751314C055
:102A4000341312C0611110C02F7020612093DB017C
:102A50000E94551486ED91E00E94B2138091DB0133
:102A6000D80115968C932EC0CD2819F15F3F11F433
:102A70004F3FF9F0F62E61111CC08091A401209106
:102A8000A50136E0821709F45AC090E0389FF001A2
:102A9000399FF00D1124EA55FE4F7181571306C07E
:102AA0007081471303C07281711103C00196877052
:102AB000E9CFF62E662309F418C18091DB0181600D
:102AC0008093DB01F12C11C1751308C0341306C0CB
:102AD000611104C08091DB01D801C3C04D875E87BE
:102AE0008D859E856A8B0E94F1136A898823E1F1A6
:102AF0006623D1F12091DB01822F82958F7090E0C7
:102B0000029774F08091D6019091D70198878F83B6
:102B10001986DB86CA862C87CE0107960E94B213DF
:102B200086E0F801A6EDB1E001900D928A95E1F7FB
:102B30000E9463140E945514FF24F394D6C04D875D
:102B40005E878D859E850E947A19292F22952F7088
:102B500030E0223031050CF0BCC09F7009F0B6C0E7
:102B6000805E883008F4C1C0C8010E94B213E4CF6F
:102B7000C816D90608F453C0F601E81BF90BCF01BB
:102B8000883C910508F450C0F12C7C2DD98AC88A64
:102B900089890E941514E6EDF1E086E0DF011D92BF
:102BA0008A95E9F70E945514A0C0751314C0341318
:102BB00012C0611110C08091DB01F8018583C8014A
:102BC0000E94B21386E0E6EDF1E0DF011D928A95E6
:102BD000E9F7FE2C8AC04D875E878D859E856A8BBE
:102BE0000E94F1136A89882309F4BECF662309F491
:102BF000BBCF2091DB01822F82958F7090E00297EE
:102C00000CF48ECF8091D6019091D7019A8389835D
:102C10001B82DD82CC822E83CE0101967FCF8095F0
:102C200090958C0D9D1DACCFF62E662309F49CCF9C
:102C300075132EC034132CC02091DB0120FD1FC062
:102C4000822F82958F70D9F0D80115962C93159705
:102C50008F3049F08F5F982F9295907F822F8F70E1
:102C6000892B15968C93C8010E94B21386E0F80157
:102C7000A6EDB1E001900D928A95E1F793CF86E041
:102C8000F801A6EDB1E001900D928A95E1F72DC013
:102C90004D875E878D859E850E94F113811140CFFF
:102CA0008091DB0181608093DB01C8010E94B21337
:102CB0001CC0662309F458CF4D875E878D859E859D
:102CC0000E94F113882309F44FCF2ACF811148CFF6
:102CD0000CC0243031050CF047CF9F7009F440CF71
:102CE000F8019581907F09F03BCF8F2D62960FB64A
:102CF000F894DEBF0FBECDBFDF91CF911F910F9132
:102D0000FF90EF90DF90CF9008951F93CF93DF93C4
:102D1000CDB7DEB72C970FB6F894DEBF0FBECDBF90
:102D20004F83588769877A878B879C87CE01079660
:102D30000E94BE14882369F08F8198852A853B857F
:102D4000232BF1F19F3F09F063C08F3F09F060C072
:102D500037C086E0FE013796DE01119601900D9294
:102D60008A95E1F76F817885EA85FB85309741F197
:102D70007F3F11F46F3F21F12091A50130E0C9019F
:102D80000196877099274091A40150E08417950718
:102D900009F447C069837A83FD83EC8396E0929FB0
:102DA000D001939FB00D1124AA55BE4FFE0131965C
:102DB00001900D929A95E1F78093A5010E94341439
:102DC00016E08091A4019091A5018917C1F1189F87
:102DD000C00111248A559E4F0E94BE14882379F1A8
:102DE000E091A4011E9FF0011124EA55FE4F40819D
:102DF000518162817381848195810E942414809124
:102E0000A40190E00196877099278093A401D9CFFF
:102E10004F81588569857A858B859C850E9424140D
:102E2000CFCF0E94ED131092A5011092A401E6ED00
:102E3000F1E086E0DF011D928A95E9F7C1CF2C967B
:102E40000FB6F894DEBF0FBECDBFDF91CF911F91BB
:102E50000895EF92FF920F931F93CF93DF938C010E
:102E6000892B09F46CC0F12CEE24E394E80121963F
:102E7000F8018491843740F4843008F051C08130E7
:102E800081F0823019F15BC0853709F444C0A8F1A4
:102E90009CE7980F903708F052C08F770E94061178
:102EA00041C00E5F1F4FFE01C49180E28C0F88303D
:102EB00048F4C7708E2D01C0880FCA95EAF70E94AA
:102EC000821A14C08C2F0E943E102DC00E5F1F4F1F
:102ED000FE01C49180E28C0F883058F4C7708E2DAB
:102EE00001C0880FCA95EAF70E94881A0E94A91AA1
:102EF0001AC08C2F0E94061116C00E5F1F4FFE01D4
:102F0000C491CC2381F08FE99FE00197F1F700C0D5
:102F10000000C150F6CF0E5F1F4FFE01F49003C0BA
:102F20000E943E108E018F2D882309F49FCFEFE978
:102F3000FFE03197F1F700C000008150F5CFDF913D
:102F4000CF911F910F91FF90EF9008950895609396
:102F50001C0270931D0280931E0290931F020C941A
:102F6000D9130F931F9300911C0210911D02209101
:102F70001E0230911F02DC01CB01802B912BA22B72
:102F8000B32B80931C0290931D02A0931E02B0935A
:102F90001F021F910F910C94D9130F931F9300914F
:102FA0001C0210911D0220911E0230911F02DC01B3
:102FB000CB0180239123A223B32380931C029093FF
:102FC0001D02A0931E02B0931F021F910F910C943B
:102FD000D9130F931F9300911C0210911D02209191
:102FE0001E0230911F02DC01CB0180279127A2270E
:102FF000B32780931C0290931D02A0931E02B093EE
:103000001F021F910F910C94D91310921802109265
:10301000190210921A0210921B020C94D91341E06B
:1030200050E060E070E004C0440F551F661F771F3A
:103030008A95D2F7409318025093190260931A02AE
:1030400070931B020C94D91341E050E060E070E0F3
:1030500004C0440F551F661F771F8A95D2F78091D1
:10306000180290911902A0911A02B0911B02482BEC
:10307000592B6A2B7B2B40931802509319026093B3
:103080001A0270931B020C94D91341E050E060E0E7
:1030900070E004C0440F551F661F771F8A95D2F752
:1030A0004095509560957095809118029091190205
:1030B000A0911A02B0911B02482359236A237B2353
:1030C000409318025093190260931A0270931B02E6
:1030D0000C94D91341E050E060E070E004C0440F6C
:1030E000551F661F771F8A95D2F78091180290911D
:1030F0001902A0911A02B0911B02482759276A278A
:103100007B27409318025093190260931A02709320
:103110001B020C94D9130F931F9300911802109166
:10312000190220911A0230911B02DC01CB01802B85
:10313000912BA22BB32B8093180290931902A0938A
:103140001A02B0931B021F910F910C94D9130F9385
:103150001F93009118021091190220911A023091C8
:103160001B02DC01CB0180239123A223B323809394
:10317000180290931902A0931A02B0931B021F9198
:103180000F910C94D9130F931F9300911802109173
:10319000190220911A0230911B02DC01CB01802719
:1031A0009127A227B3278093180290931902A09326
:1031B0001A02B0931B021F910F910C94D91308951A
:1031C00020E1929F800D1124A82FA695A695A69583
:1031D000877051E001C0550F8A95EAF785E0A89FF6
:1031E000D001112420E030E070E0F901EA0FFB1F6C
:1031F000E452FE4F4081CB01022E02C09695879586
:103200000A94E2F781709927819584278523842782
:1032100080832F5F3F4F2530310539F7089520E136
:10322000929F800D1124682F669566956695982F5C
:10323000977085E0689FB001112440E050E080E085
:10324000FA01E60FF71FE452FE4F208130E0092E0D
:1032500002C0369527950A94E2F721703327042E91
:1032600001C0220F0A94EAF7822B4F5F5F4F45306F
:10327000510531F70895CF92DF92EF92FF920F93AD
:103280001F93CF93DF938C01C0901C02D0901D023E
:10329000E0901E02F0901F02809118029091190296
:1032A000A0911A02B0911B02C82AD92AEA2AFB2A45
:1032B000CFE1D0E0D701C6010C2E04C0B695A7958A
:1032C000979587950A94D2F780FF06C0B8018C2F96
:1032D0000E942006019721F4219760F780E001C049
:1032E0008C2FDF91CF911F910F91FF90EF90DF9086
:1032F000CF900895CF93DF93EC010E943B19BE015C
:103300000E942006DF91CF9108951F93CF93DF9302
:10331000EB019091A301992321F0CB010E947A192E
:1033200013C0882349F0CB010E943B19182F682F46
:10333000CE010E94E01804C0CB010E940F19182F83
:10334000BE01812F0E942006DF91CF911F91089529
:10335000809120028595859585950895809120021C
:103360008770089598E0899F90011124262B20935F
:1033700020020C94241820912002809582238093AF
:103380002002982F977069F430E0482F082E000C27
:10339000550B2417350729F08595859585950C944F
:1033A0004518089590912002977081E009F480E01B
:1033B000089590911301992321F09091AE0297FD09
:1033C00009C02091010130910201F90132969FEF6D
:1033D00040E01FC0982F9695969596959F3150F591
:1033E000E0910101F0910201E90FF11D877021E0E8
:1033F00030E0A90102C0440F551F8A95E2F7CA01C7
:103400009181892B818308959F3F39F04F5F4E3121
:1034100041F051915813F8CF0DC05111F7CF942FAF
:10342000F5CF9F3F39F0F901E90FF11D97FDFA95AE
:1034300082830895089590911301992321F090912A
:10344000AE0297FD09C02091010130910201F901FE
:103450003296205E3F4F1FC0982F96959695969571
:103460009F31F0F4E0910101F0910201E90FF11DAB
:10347000877021E030E0A90102C0440F551F8A95F2
:10348000E2F7CA018095918189238183089531965D
:10349000E217F30729F090819813F9CF1082F7CF44
:1034A000089581E090E0E0910101F0910201E80FC0
:1034B000F91F1082019680329105A9F70895809135
:1034C0004402089590914402892B80934402089508
:1034D000809590914402892380934402089510922C
:1034E0004402089590914302892B809343020895EA
:1034F000809590914302892380934302089510920E
:103500004302089590914202892B809342020895CC
:1035100080959091420289238093420208951092EF
:103520004202089580932102089510922102089585
:103530008091010190910201FC0131969C01205E75
:103540003F4F80E0919191118F5FE217F307D1F720
:103550000895E0910101F09102018091440280837D
:10356000E0910101F0910201908180914302892B49
:103570008083E0910101F0910201908180914202EB
:10358000892B808380912102882361F0E0910101E1
:10359000F09102019081892B80830E94981A8111F9
:1035A0001092210280910101909102010C94080F68
:1035B0006DEE7EEF80E090E00E94F22860E082E015
:1035C00090E00E94D42860E083E090E00E94D4283C
:1035D00060E084E090E00E94D42860E085E090E024
:1035E0000E94D42860E086E090E00E94D42840E069
:1035F00050E0BA0188E090E00C94E62880E090E08A
:103600000E94CE2821E08D3E9E4F09F020E0822FBF
:10361000089582E090E00C94C028682F82E090E04A
:103620000C94D42883E090E00C94C028682F83E0A9
:1036300090E00C94D42884E090E00C94C028682F8B
:1036400084E090E00C94D42886E090E00C94C028AC
:10365000682F86E090E00C94D4288091B5028430E5
:1036600051F11092460220E488E190E00FB6F89400
:10367000A895809360000FBE2093600080E00E94B8
:10368000CA0580E00E94010683B7817F846083BF02
:1036900083B7816083BF7894889583B78E7F83BF1B
:1036A0000FB6F894A89580916000886180936000BF
:1036B000109260000FBE089508950895CF930E9460
:1036C0005C1B0E94DF080E945D1BC0E08C2F0E94E3
:1036D0009309892B29F4CF5FC630C1F780E001C080
:1036E00081E0CF9108950E94ED130E94CA1F0E94AD
:1036F000FC0E0C9401061F920F920FB60F9211242C
:103700008F939F93AF93BF9380914602811113C013
:103710008091AA029091AB02A091AC02B091AD024F
:103720004196A11DB11D8093AA029093AB02A09374
:10373000AC02B093AD02BF91AF919F918F910F906A
:103740000FBE0F901F90189582E084BD93E095BD49
:103750009AEF97BD80936E0008952FB7F8948091EB
:10376000AA029091AB02A091AC02B091AD022FBF22
:103770000895CF92DF92EF92FF920F931F932FB78E
:10378000F8944091AA025091AB026091AC02709102
:10379000AD022FBF6A017B01EE24FF248C0120E0E3
:1037A00030E0C016D106E206F30610F4415051098C
:1037B0009A01281B390BC9011F910F91FF90EF90BF
:1037C000DF90CF9008951F920F920FB60F921124A1
:1037D0008F939F93AF93BF938091AA029091AB0276
:1037E000A091AC02B091AD020196A11DB11D8093D4
:1037F000AA029093AB02A093AC02B093AD02BF912A
:10380000AF919F918F910F900FBE0F901F901895C1
:103810000E946324F8942FEF87EA91E621508040BC
:103820009040E1F700C0000087E090EBDC0180935E
:10383000BE029093BF02A093C002B093C1029CE06D
:1038400088E10FB6F894A895809360000FBE90931E
:103850006000FFCFAF92BF92CF92DF92EF92FF92C4
:103860000F931F93CF93C0E0CC24C394D12CE82EA8
:10387000F12C8C2F0E9493095C0100E010E096016E
:10388000002E02C0220F331F0A94E2F72A213B21A7
:10389000232B31F40F5F1F4F0031110581F70AC050
:1038A000602F7C2F80E00E940306E816F90691F74E
:1038B00081E004C0CF5FC630E1F680E0CF911F9178
:1038C0000F91FF90EF90DF90CF90BF90AF90089551
:1038D000CF93C82F8CE20E942A1C882321F08C2FC2
:1038E000CF910C942A1C80E0CF910895CF930E9431
:1038F000FE1A811102C00E94D81AC5E6C15049F0D3
:103900000E94DF088FE39CE90197F1F700C00000F7
:10391000F5CF89E20E94681C81110FC18AE20E94E2
:10392000681C81110E94D81A85E00E94681C8111D0
:103930000E94081C0E94091B8093450287E00E9498
:10394000681C8823A9F18BE10E94681C882351F030
:103950008091450281FB222720F991E0922790FB7C
:1039600081F90EC08EE00E94681C882361F080916E
:10397000450282FB222720F991E0922790FB82F9F1
:103980008093450215C080E10E94681C9091450219
:10399000882341F093FB222720F981E0822780FBD6
:1039A00093F904C0892F809580FB90F9909345028C
:1039B000809145020E940D1B0E941B1B90E090937A
:1039C000AF028093AE0280EE0E94681C882341F013
:1039D0008091AE02982F909590FB80F98093AE0273
:1039E00089E30E94681C882359F08091AE0281FB14
:1039F000222720F991E0922790FB81F98093AE0273
:103A000082EE0E94681C882359F08091AE0282FBEE
:103A1000222720F991E0922790FB82F98093AE0251
:103A200086EE0E94681C882359F08091AE0283FBC9
:103A3000222720F991E0922790FB83F98093AE0230
:103A400083EE0E94681C882359F08091AE0284FBAB
:103A5000222720F991E0922790FB84F98093AE020F
:103A600085E30E94681C882359F08091AE0285FB93
:103A7000222720F991E0922790FB85F98093AE02EE
:103A800081E30E94681C882359F08091AE0286FB76
:103A9000222720F991E0922790FB86F98093AE02CD
:103AA00081E10E94681C882359F08091AE0287FB57
:103AB000222720F991E0922790FB87F98093AE02AC
:103AC0008091AE020E941F1B87E20E94681CC82FD3
:103AD0008EE10E94681C8111C2608FE10E94681C07
:103AE0008111C46080E20E94681C8111C86081E27B
:103AF0000E94681C8111C06182E20E94681C8111D1
:103B0000C06283E20E94681C8111C06484E20E944A
:103B1000681C882311F0C06802C0CC2329F08C2FC8
:103B20000E94161B6C2F03C00E94121B682F70E0AE
:103B300080E090E0CF910C94A717CF9108958091E9
:103B4000490280FF0BC06091060185E0689FB001CB
:103B5000112475956795759567952BC081FF09C0F0
:103B60006091060185E0689FB00111247595679505
:103B700020C082FF07C06091060185E0689FB00108
:103B8000112417C090914A029923D1F06091050148
:103B9000961788F72091060185E0289F900111244F
:103BA000929FA001939F500D112470E0CA010E94C2
:103BB000A6286038710540F46115710539F002C01E
:103BC00065E070E0862F08958FE7089581E00895FD
:103BD0008091490280FF08C06091040170E07595F2
:103BE00067957595679521C081FF06C060910401B6
:103BF00070E07595679519C082FF04C0609104015B
:103C000070E010C090914A029923C1F060910301C5
:103C10009617A0F780910401899FC001112470E0DC
:103C20000E94A6286038710528F46115710521F0FD
:103C3000862F08958FE7089581E0089561E070E090
:103C4000F4CF803F21F40E949F1D819504C0813FE5
:103C500029F40E949F1D80934D020895823F21F414
:103C60000E949F1D819504C0833F29F40E949F1DDF
:103C700080934C020895893F19F40E94E81D05C005
:103C80008A3F31F40E94E81D819580934E02089589
:103C90008B3F21F40E94E81D819504C08C3F29F4DC
:103CA0000E94E81D80934F020895843F21F4809183
:103CB0004B02816017C0853F21F480914B028260E6
:103CC00011C0863F21F480914B0284600BC0873F76
:103CD00021F480914B02886005C0883F31F48091C7
:103CE0004B02806180934B0208958D3F21F48091B7
:103CF000490281600BC08E3F21F4809149028260AD
:103D000005C08F3F29F48091490284608093490265
:103D10000895803F39F480914D0287FF6CC0109266
:103D20004D0269C0813F29F480914D021816BCF301
:103D300062C090914C02823F29F497FF5CC01092C0
:103D40004C0259C0833F19F41916CCF354C0893F73
:103D500041F480914E0218160CF04DC010924E02A4
:103D60004AC08A3F29F480914E0287FF44C0F6CFB3
:103D70008B3F39F480914F0287FF3DC010924F0274
:103D80003AC08C3F29F480914F021816BCF333C01F
:103D9000843F21F480914B028E7F17C0853F21F430
:103DA00080914B028D7F11C0863F21F480914B02A0
:103DB0008B7F0BC0873F21F480914B02877F05C02A
:103DC000883F31F480914B028F7E80934B0213C069
:103DD0008D3F21F4809149028E7F0BC08E3F21F4EC
:103DE000809149028D7F05C08F3F29F4809149025F
:103DF0008B7F8093490280914C0281110EC080918B
:103E00004D0281110AC080914E02811106C080913D
:103E10004F02811102C010924A0208958BE492E091
:103E20000E94130F0E94AD1B90934802809347029B
:103E300008951F93CF93DF9380914702909148029A
:103E40000E94B91BAC0190914A02992321F0209164
:103E5000070130E006C0209108018AE0289F900108
:103E600011244217530708F485C080914C02C09179
:103E70004D02D0914E0210914F02811107C0C11125
:103E800075C0D11173C0111171C074C09F3F19F07A
:103E90009F5F90934A02181624F40E949F1D8093FE
:103EA0004C0280914C0287FF05C00E949F1D8195A6
:103EB00080934C021C1624F40E949F1D80934D0297
:103EC00080914D0287FF05C00E949F1D81958093C0
:103ED0004D0260914C02662331F1C0914D02CC231A
:103EE00011F1062E000C770B880B990B0E94992775
:103EF00023E333E343E35FE30E94FD270E9461274E
:103F000060934C026C2FCC0F770B880B990B0E949F
:103F1000992723E333E343E35FE30E94FD270E94F5
:103F2000612760934D021D1624F40E94E81D8093C2
:103F30004E0280914E0287FF05C00E94E81D8195C8
:103F400080934E02111624F40E94E81D80934F02C4
:103F500080914F0287FF05C00E94E81D81958093E4
:103F60004F02DF91CF911F910C940E1F9F3F09F0DC
:103F70008FCF97CFDF91CF911F910895EBE4F2E0BF
:103F800085E0DF011D928A95E9F710924A021092AE
:103F9000490208950E94FE1A811102C00E94D81A97
:103FA0000E94241B8093B00280FF02C0869501C04E
:103FB00080E00C94CA052091B002822F8695482F8C
:103FC00050E04530510544F48F5F982F990F822FB0
:103FD0008170892B8093B0028091B00281608093C0
:103FE000B0020E94281B8091B00286950C94CA05ED
:103FF0008091B002982F969591F09158990F817009
:10400000892B8093B0028E7F91E009F490E080913B
:10401000B00290FB80F98093B0020E94281B80912F
:10402000B00286950C94CA058091B002982F9095A5
:1040300090FB80F98093B0020E94281B8091B0020F
:1040400080FF02C0869501C080E00C94CA05909163
:10405000B002892F86958F5F8F779170863028F414
:10406000880F892B8093B00202C09093B002809198
:10407000B0028E7F91E009F490E08091B00290FB55
:1040800080F98093B0020E94281B8091B00286952F
:104090000C94CA052091B002922F96958927982FEB
:1040A000990F822F8170892B8093B0028E7F91E0CF
:1040B00009F490E08091B00290FB80F98093B00207
:1040C0000E94281B8091B00286950C94CA058091AD
:1040D00070020895CF93DF9300D01F92CDB7DEB763
:1040E0009C018091B502843019F593E099833B835C
:1040F0002A839093E9008FEF9091E800815095FD1D
:1041000006C095ED9A95F1F700008111F5CF8091E9
:10411000E80085FF0DC040E050E063E070E0CE01B4
:1041200001960E94CE228091E8008E778093E8006D
:104130000F900F900F90DF91CF910895CF93DF9361
:1041400000D01F92CDB7DEB72091B502243031F5F3
:1041500022E02983805891099B838A8383E080939E
:10416000E9008FEF9091E800815095FD06C095ED34
:104170009A95F1F700008111F5CF8091E80085FF55
:104180000DC040E050E063E070E0CE0101960E9477
:10419000CE228091E8008E778093E8000F900F90F8
:1041A0000F90DF91CF9108952091B5022430F1F462
:1041B00022E02093E9002FEF3091E800215035FDF7
:1041C00006C035ED3A95F1F700002111F5CF2091A9
:1041D000E80025FF0BC040E050E065E070E00E9481
:1041E000CE228091E8008E778093E8000895CF93E7
:1041F000DF93EC019091B502943009F046C08091B4
:1042000013018823D9F08091AE0287FF17C09093E5
:10421000E9008FEF9091E800815095FD06C095E18F
:104220009A95F1F700008111F5CF8091E80085FFA4
:104230002CC040E050E060E270E017C081E0809365
:10424000E9008FEF9091E800815095FD06C095ED53
:104250009A95F1F700008111F5CF8091E80085FF74
:1042600014C040E050E068E070E0CE010E94CE2231
:104270008091E8008E778093E80080E2FE01A0E55F
:10428000B2E001900D928A95E1F7DF91CF91089508
:104290008091B402811109C00E9463240E94C0244D
:1042A0008091E20084608093E20008951092B4024D
:1042B0000895089508950C94731B42E061EC81E029
:1042C0000E94DD2342E061EC82E00E94DD2342E0B7
:1042D00061EC83E00E94DD2342E261EC84E00C9417
:1042E000DD238091B702833009F455C030F481306A
:1042F00071F0823009F48EC008958A3009F47AC0D2
:104300008B3009F460C0893009F09CC020C08091D6
:10431000B602813A09F096C08091E800877F8093C9
:10432000E8008091BA029091BB02892B21F460E2EF
:1043300080E592E003C060E080E090E070E00E94E1
:1043400019238091E8008B778093E800089580918D
:10435000B602813209F076C08091BA029091BB0218
:10436000009719F0039709F06DC08091E800877FEE
:104370008093E8008091E80082FD05C08091B5023D
:104380008111F8CF5FC08091F1008093700280911D
:10439000E8008B7753C08091B602813A09F052C091
:1043A0008091BA029091BB02892B09F04BC0809199
:1043B000E800877F8093E8008091E80080FFFCCFD1
:1043C0008091130136C08091B6028132D9F5809177
:1043D000BA029091BB02892BA9F58091E800877FF2
:1043E0008093E8000E9412248091B8028093130108
:1043F0000C94ED138091B602813221F58091E80092
:10440000877F8093E8000E9412248091B9028093F4
:10441000710208958091B602813AA1F48091E8007A
:10442000877F8093E8008091E80080FFFCCF809137
:1044300071028093F1008091E8008E778093E8000C
:104440000C941224089584B7877F84BF0FB6F89424
:10445000A895809160008861809360001092600050
:104460000FBE80E880936100109261000E944B0FA4
:104470000E9463240E94C0248091E20084608093A3
:10448000E20078940E9446270E944D0F89E091E057
:104490000E94F70E8091B502853069F40E942D1BB1
:1044A0008091B3028823B1F30E945E1B882391F3AD
:1044B0000E94B822EFCF0E94570F0E94C40EEACF8D
:1044C000292F332723303105C9F064F42130310519
:1044D00081F02230310509F043C08DE690E02BECED
:1044E00035E042C021323105F1F02232310541F18F
:1044F00037C082E190E028E336E036C0992781306A
:10450000910541F08230910541F0892B49F5E7ECA6
:10451000F5E005C0EFEAF5E002C0EBE9F5E08491D3
:1045200090E09F0121C06430D8F4E62FF0E0EE0F58
:10453000FF1FEA5CFE4F2081318189E090E014C0CA
:10454000643070F470E0FB01EE0FFF1FE25DFE4F80
:1045500020813181FB01E65DFE4F808190E004C047
:1045600080E090E020E030E0FA013183208308957C
:1045700080E189BD82E189BD09B400FEFDCF809153
:10458000D8008F7D8093D8008091E0008260809376
:10459000E0008091E00081FDFCCF0895CF92DF9292
:1045A000EF92FF920F931F93CF93DF93EC018B0158
:1045B0006A010E943124811133C0C114D10439F041
:1045C000F60180819181081B190BC80FD91FE12CBE
:1045D000F12C0115110519F18091E80085FD16C037
:1045E0008091E8008E778093E800C114D10449F0EF
:1045F000F60180819181E80EF91EF182E08285E06A
:104600000FC00E943124882321F30AC0899180932E
:10461000F10001501109FFEFEF1AFF0ADACF80E035
:10462000DF91CF911F910F91FF90EF90DF90CF908E
:1046300008952091BC023091BD022617370748F03B
:104640006115710539F42091E8002E772093E80078
:1046500001C0B90140E061157105A9F12091B502D1
:10466000222309F443C0253009F442C02091E80018
:1046700023FD40C02091E80022FD32C02091E800D7
:1046800020FFE9CF4091F3002091F20030E0342B7D
:10469000FC01CF016115710559F02830310540F456
:1046A00081918093F100615071092F5F3F4FF1CFED
:1046B00041E02830310509F040E02091E8002E77F4
:1046C0002093E800C8CF4111C9CF0AC08091B5023C
:1046D000882361F0853061F08091E80083FD0AC095
:1046E0008091E80082FFF2CF80E0089582E0089593
:1046F00083E0089581E008952091BC023091BD02CD
:104700002617370748F06115710539F42091E80044
:104710002E772093E80001C0B901FC0120E061156B
:10472000710591F18091B502882309F440C085306C
:1047300009F43FC08091E80083FD3DC08091E8000E
:1047400082FD2FC08091E80080FFE9CF2091F30027
:104750008091F20090E0922B6115710559F088303C
:10476000910540F424912093F10031966150710934
:104770000196F2CF21E0089709F020E08091E8004F
:104780008E778093E800CBCF2111CCCF0AC08091E7
:10479000B502882361F0853061F08091E80083FDE7
:1047A0000AC08091E80082FFF2CF80E0089582E0A5
:1047B000089583E0089581E00895982F973058F583
:1047C0009093E900981739F07091EC002091ED007A
:1047D0005091F00003C0242F762F50E021FF19C024
:1047E0003091EB003E7F3093EB003091ED003D7F48
:1047F0003093ED003091EB0031603093EB0070931B
:10480000EC002093ED005093F0002091EE0027FF84
:1048100007C09F5FD3CF8F708093E90081E0089538
:1048200080E008958091B60287FF11C08091E80072
:1048300082FD05C08091B5028111F8CF11C0809131
:10484000E8008B770BC08091B502882349F08091F6
:10485000E80080FFF8CF8091E8008E778093E80031
:1048600008952091E4003091E50095E64091EC0038
:10487000842F817040FF22C08091E80080FD1CC021
:104880008091B502882391F0853091F08091EB0002
:1048900085FD10C04091E4005091E5004217530798
:1048A00029F39A01915011F784E0089582E0089568
:1048B00083E0089581E0089580E008954091E80044
:1048C00042FFDECF08950E94D1240E94D924E0EE59
:1048D000F0E0808181608083E8EDF0E080818F7777
:1048E000808319BCA7EDB0E08C918E7F8C93808182
:1048F0008F7E80831092B40208950F931F93CF93FD
:10490000DF930E94D1240E94D924C8EDD0E0888191
:104910008F77888388818068888388818F7D88836A
:1049200019BC1092B5021092B1021092B30210920B
:10493000B20200EE10E0F80180818B7F80838881D5
:104940008160888342E060E080E00E94DD23E1EE48
:10495000F0E080818E7F8083E2EEF0E080818160F4
:104960008083808188608083F80180818E7F80834E
:10497000888180618883DF91CF911F910F91089585
:10498000E8EDF0E080818F7E8083E7EDF0E08081CC
:104990008160808384E082BF81E08093B4020C94C4
:1049A0007D24E8EDF0E080818E7F80831092E2002C
:1049B00008951092DA001092E10008951F920F926C
:1049C0000FB60F9211242F933F934F935F936F93E2
:1049D0007F938F939F93AF93BF93EF93FF938091B8
:1049E000E10082FF0BC08091E20082FF07C080914E
:1049F000E1008B7F8093E1000E9445278091DA00DF
:104A000080FF1FC08091D80080FF1BC08091DA001A
:104A10008E7F8093DA008091D90080FF0DC080E105
:104A200089BD82E189BD09B400FEFDCF81E080939C
:104A3000B5020E94482105C019BC1092B5020E941F
:104A400056218091E10080FF19C08091E20080FF33
:104A500015C08091E2008E7F8093E2008091E20099
:104A600080618093E2008091D80080628093D800BA
:104A700019BC85E08093B5020E945A218091E10023
:104A800084FF30C08091E20084FF2CC080E189BDAA
:104A900082E189BD09B400FEFDCF8091D8008F7DF1
:104AA0008093D8008091E1008F7E8093E100809117
:104AB000E2008F7E8093E2008091E200816080932B
:104AC000E2008091B102882311F084E007C0809158
:104AD000E30087FD02C081E001C083E08093B5025E
:104AE0000E945B218091E10083FF29C08091E20058
:104AF00083FF25C08091E100877F8093E10082E001
:104B00008093B5021092B1028091E1008E7F809374
:104B1000E1008091E2008E7F8093E2008091E200CC
:104B200080618093E20042E060E080E00E94DD234B
:104B30008091F00088608093F0000E945921FF91DD
:104B4000EF91BF91AF919F918F917F916F915F9105
:104B50004F913F912F910F900FBE0F901F9018957E
:104B60001F920F920FB60F9211242F933F934F93E2
:104B70005F936F937F938F939F93AF93BF93CF93E5
:104B8000DF93EF93FF93C091E900CF708091EC0029
:104B9000D82FD17080FDD0E81092E9008091F0000C
:104BA000877F8093F00078940E94F4251092E900AA
:104BB0008091F00088608093F000CD2BCF70C0937F
:104BC000E900FF91EF91DF91CF91BF91AF919F915C
:104BD0008F917F916F915F914F913F912F910F90A6
:104BE0000FBE0F901F9018951F93CF93DF93CDB7F3
:104BF000DEB7AA970FB6F894DEBF0FBECDBFE6EBC7
:104C0000F2E088E08E0F9091F10091938E13FBCF2C
:104C10000E9471218091E80083FF1FC18091B6023C
:104C20009091B702492F50E04A30510508F015C164
:104C3000FA01E556FF4F0C94BA28803881F082388B
:104C400009F00BC18091BA028F708093E9008091C6
:104C5000EB0085FB882780F91092E90006C080915F
:104C6000B2029091B302911182609091E800977F17
:104C70009093E8008093F1001092F100C8C0282FB3
:104C80002D7F09F0EAC0882319F0823061F0E5C079
:104C90008091B802813009F0E0C0933009F080E0E3
:104CA0008093B3022BC08091B802811127C08091FC
:104CB000BA028F7009F4D1C08093E9002091EB0013
:104CC00020FF1CC0933021F48091EB00806214C05F
:104CD0009091EB0090619093EB0021E030E0A9010E
:104CE00002C0440F551F8A95E2F74093EA001092E4
:104CF000EA008091EB0088608093EB001092E9005D
:104D00008091E800877F86C08111A7C01091B8020A
:104D10001F778091E3008078812B8093E30080915E
:104D2000E800877F8093E8000E9412248091E800C9
:104D300080FFFCCF8091E30080688093E300111135
:104D400002C082E001C083E08093B50286C0805833
:104D5000823008F082C08091B8029091B9028C3DF7
:104D600053E0950779F583E08A838AE289834FB718
:104D7000F894DE01139620E03EE051E2E32FF0E0EC
:104D800050935700E49120FF03C0E295EF703F5F1E
:104D9000EF708E2F90E0EA3010F0C79601C0C096F9
:104DA0008D939D932F5F243149F74FBF8091E80089
:104DB000877F8093E8006AE270E0CE0101960E944E
:104DC000192314C0AE014F5F5F4F6091BA020E9479
:104DD0006022BC01892B09F440C09091E800977FC4
:104DE0009093E80089819A810E947C238091E80059
:104DF0008B778093E80031C0803879F58091E800A6
:104E0000877F8093E8008091B1028093F1008091C8
:104E1000E8008E778093E8000E9412241EC0811162
:104E20001CC09091B8029230C0F48091E800877F56
:104E30008093E8009093B1020E9412248091B10205
:104E4000811106C08091E30087FD02C081E001C0AE
:104E500084E08093B5020E945D218091E80083FF89
:104E60000AC08091E800877F8093E8008091EB0082
:104E700080628093EB00AA960FB6F894DEBF0FBE57
:104E8000CDBFDF91CF911F9108950895CF93809169
:104E9000B5028823A1F0C091E900CF709091EC0099
:104EA000892F817090FD80E8C82B1092E9008091D5
:104EB000E80083FD0E94F425CF70C093E900CF91F4
:104EC00008950E9468276894B1110C94F7270895FB
:104ED0000E94DC2788F09F5798F0B92F9927B75187
:104EE000B0F0E1F0660F771F881F991F1AF0BA958E
:104EF000C9F714C0B13091F00E94F627B1E00895CF
:104F00000C94F627672F782F8827B85F39F0B93FC0
:104F1000CCF3869577956795B395D9F73EF4909540
:104F20008095709561957F4F8F4F9F4F0895E894BE
:104F300009C097FB3EF490958095709561957F4FE1
:104F40008F4F9F4F9923A9F0F92F96E9BB2793958F
:104F5000F695879577956795B795F111F8CFFAF49F
:104F6000BB0F11F460FF1BC06F5F7F4F8F4F9F4FD0
:104F700016C0882311F096E911C0772321F09EE82E
:104F8000872F762F05C0662371F096E8862F70E094
:104F900060E02AF09A95660F771F881FDAF7880F6E
:104FA0009695879597F9089557FD9058440F551F8A
:104FB00059F05F3F71F04795880F97FB991F61F09B
:104FC0009F3F79F087950895121613061406551F12
:104FD000F2CF4695F1DF08C0161617061806991F7E
:104FE000F1CF86957105610508940895E894BB2773
:104FF00066277727CB0197F908950E9410280C9413
:1050000081280E94732838F00E947A2820F0952386
:1050100011F00C946A280C94702811240C94F72732
:105020000E94D42770F3959FC1F3950F50E0551F50
:10503000629FF001729FBB27F00DB11D639FAA27ED
:10504000F00DB11DAA1F649F6627B00DA11D661F3C
:10505000829F2227B00DA11D621F739FB00DA11D5D
:10506000621F839FA00D611D221F749F3327A00D17
:10507000611D231F849F600D211D822F762F6A2FB3
:1050800011249F5750409AF0F1F088234AF0EE0F18
:10509000FF1FBB1F661F771F881F91505040A9F745
:1050A0009E3F510580F00C946A280C94F7275F3FCF
:1050B000E4F3983ED4F3869577956795B795F79581
:1050C000E7959F5FC1F7FE2B880F911D96958795F9
:1050D00097F9089597F99F6780E870E060E0089578
:1050E0009FEF80EC089500240A9416161706180600
:1050F0000906089500240A941216130614060506DC
:105100000895092E0394000C11F4882352F0BB0F6C
:1051100040F4BF2B11F460FF04C06F5F7F4F8F4FCF
:105120009F4F0895AA1BBB1B51E107C0AA1FBB1FBD
:10513000A617B70710F0A61BB70B881F991F5A9523
:10514000A9F780959095BC01CD01089597FB072E96
:1051500016F4009407D077FD09D00E94922807FC2E
:1051600005D03EF4909581959F4F08957095619577
:105170007F4F0895EE0FFF1F0590F491E02D0994E5
:10518000F999FECF92BD81BDF89A992780B508950F
:10519000A6E1B0E044E050E00C94FA28A8E1B0E0C9
:1051A00042E050E00C94FA28262FF999FECF92BDE8
:1051B00081BDF89A019700B4021639F01FBA20BDDC
:1051C0000FB6F894FA9AF99A0FBE08950396272F0E
:1051D0000E94D5280E94D428252F0E94D528242F4C
:1051E0000C94D5280196272F0E94D5280C94D428FA
:1051F000DC01CB01FC01F999FECF06C0F2BDE1BD97
:10520000F89A319600B40D9241505040B8F7089585
:04521000F894FFCF40
:10521400FF22022808140A321E6720F720D4209E99
:10522400206A2001F0F1C66766F594313035349771
:105234009633F4F6909192939537404D363906079C
:0E524400B90683064A06DD05F6050F062806A4
:00000001FF
